:04000000803114280F
:100008007E14803120007F08F0002E00961A8C1E86
:100018000F2883315B2370082000FF007E10090041
:1000280080311628FC012030840000308500103013
:1000380083317D238031A0308400003085003C303E
:1000480083317D237E10200080312A288331682364
:1000580080312B00921320009712A201A301A00166
:10006800A101A401A5018B170B17181213169311E0
:10007800981511148331282380318231FE22803172
:1000880020000C1C4C282D08031D4C28AA01AA0A84
:100098000C1852282A08031D5228AD012A080319F2
:1000A80061280130A2070030A33DA001A101A401ED
:1000B800A40A9810AD01AD0AAA01003023020A3043
:1000C80003192202031CA728A201A3018131D02110
:1000D80080310A3020002606031D8A282708031DC0
:1000E8008A2802307C060319812804307C0603190B
:1000F800812806307C06031D8A282B08031D8A28C0
:10010800AB01AB0AA501A50A2B0092170A30200003
:100118002606031DA7280F302706031DA72802302F
:100128007C0603199F2804307C0603199F28063093
:100138007C06031DA7282B080319A728AB01A501D6
:10014800A50A2B00921720002B080319AD28971633
:10015800AE289712003021021A3003192002031C1E
:10016800BA2824080319BA289814A40100302102D7
:10017800653003192002031CCD2800302102C83045
:10018800031920020318CD2825080319CD282B00B0
:100198009213003020002102C93003192002031CE9
:1001A800E128013021022C30031920020318E1282C
:1001B80025080319E1282B0092170130200021029D
:1001C8002D3003192002031CF5280130210290303C
:1001D800031920020318F52825080319F5282B0010
:1001E8009213013020002102913003192002031CD0
:1001F800092901302102F4300319200203180929C2
:100208002508031909292B00921701302000210223
:10021800F53003192002031C442825080319442833
:100228002B0092132000A50144282000B000D030F4
:10023800F6007608B2008331282381312000320885
:100248008231742281312000300882317422813158
:1002580083312823813120003214320882317422FC
:100268008131200013168331922381312000B1019E
:100278007508FF3EF600FF3003180030F7007708D6
:10028800803A803C031D4A297608310203189129D7
:100298002000B301B4010830340203187029031098
:1002A800B30D981583319223813120000E0E013948
:1002B800F6007608B3048331922381312000981127
:1002C8008331922381310130F60076082000B4078B
:1002D80008303402031C5429181213128331922354
:1002E80081312000981583319223813120009811A3
:1002F800833192238131200013163308F6007408E5
:1003080086008701760881000130F6007608F40738
:100318000130F6007608B1073C292000B301B4018A
:10032800083034020318B5290310B30D981583312A
:100338009223813120000E0E0139F6007608B304AD
:1003480083319223813120009811833192238131A6
:100358000130F60076082000B40708303402031C88
:100368009929181613128331922381312000981588
:100378008331922381312000981183319223813176
:10038800200013163308F6007408860087017608E3
:1003980081008231FE220800A0302000B700370813
:1003A800F4000830B8003808F50000308131192110
:1003B8008131210020088231E12281312000B700FB
:1003C8003708AE00210021088231E1228131200066
:1003D800B7003708A700210022083F398231E122FF
:1003E80081312000B7003708A60021002308823198
:1003F800E12281312000B7003708FC0021002408E1
:100408008231E12281312000B7003708A90021009C
:1004180025088231E12281312000B7003708A80081
:10042800210026088231E1222000B7003708AF00FA
:10043800210027082000B7003708AC000800F701A2
:10044800F21F2D2AF109F209F10A0319F20AF7013C
:10045800F70AF41F382AF309F409F30A0319F40A0E
:100468000130F5007508F706F801F9017108720402
:100478000319672AF601F60AF21B4C2A0130F135F6
:10048800F20D890B432A0130F5007508F607402A5A
:100498000130F835F90D890B4D2A72087402031DD5
:1004A800572A71087302031C5E2A7108F302720846
:1004B800F43B78140130F236F10C890B5F2A0130D5
:1004C800F602031D4C2A770803196F2AF809F9095F
:1004D800F80A0319F90A7908F2007808F100080007
:1004E800F200200018161312833192238231F3018F
:1004F8000830730203189E2AF21F852A2000181656
:10050800872A200018128331922382310310F20DBA
:10051800200098158331922382312000981183316D
:10052800922382310130F1007108F3070830730219
:10053800031C802A20001316833192238231200065
:1005480098158331922382312000981183319223A8
:100558002000181208002000960197019801FF302A
:100568009100DF309200E4309300E0303E00CE008E
:10057800DF30C300FE30B800E501C401B901CF0186
:10058800BA01C501D00100308B1B0130F1008B137B
:1005980055303D008F00AA308F000F1019303E00F3
:1005A800A00055303D008F00AA308F000F14711C39
:1005B800DF2A8B1708008B1308002000B6000F30C5
:1005C8003605B2000A30B3003308FA003608B40022
:1005D800B5013408F3003508F4001030F10000309C
:1005E800F200823123228231710883313C232000BA
:1005F80032070800200098118331922382312000AD
:1006080018121312833192238231200098158331F6
:100618009223823120001316833192230800093077
:1006280020009E0073309F0063309D009C012E00C7
:100638008C1296168930F1000330F200833183233F
:10064800833183318F2308002000131683319223CE
:1006580083312000981583319223833120001312AF
:10066800833192238331200098118331922308002B
:100678002000B100B001311C452B7A08FB007B0833
:10068800B0070310FA0D0310B10C3108031D3F2BFE
:10069800300808002B009201013093008E018D0173
:1006A8009101023090000D308F00921708002E0043
:1006B8008C12200039083A04031908003A088A0005
:1006C80039080A00833108008231AF22833183312F
:1006D8007423833183314E238331833113230800FC
:1006E800603031008D008F01910103309300920139
:1006F8000800640080010131890B7E2B00347208E8
:100708002000BA007108B900080001302000A007D5
:100718000030A13D080020009E17080000000800D6
:020000040001F9
:0A000E00EC3FFF3B9F3FFF1FFF3F49
:00000001FF
